:020000020000FC
:100000000000011F010F01960123007F00950117D9
:100010000107003F0A95012709038103890303951E
:10002000000F0695019F010201030195012B006F4E
:10003000010B004F0197011B005F0595989401F992
:10004000189411FBD998001F0795D99A0295F9F3D6
:10005000FCF7FCF3F8F3F9F7FAF3FAF7F8F7F9F726
:10006000F9F30E94340000D00895F0E0E4E309952C
:10007000F0E0EBE3099401130C943C00FFCFC99925
:10008000C99B01FD01FF09B3012FCF011ABB0F91DD
:100090001F938895A8950C910D910E910881099157
:1000A0000A91098100810191029101810FEF009174
:1000B00018000091FEFFC89504910591E8950C93F6
:1000C0000D930E93088309930A930FAF0083019356
:0C00D000029307AF00937F000093FEFF37
:00000001FF

